:020000040800F2
:100000000000022411750008650E0008670E000844
:10001000690E00086B0E00086D0E0008000000005D
:10002000000000000000000000000000F16F000868
:100030006F0E00080000000091700008F5700008C5
:100040006175000861750008617500086175000838
:100050006175000861750008617500086175000828
:10006000617500086175000861750008710E00086F
:10007000810E0008910E0008617500086175000886
:10008000617500086175000861750008A10E00081F
:10009000B10E000861750008C10E00086175000806
:1000A00061750008617500086175000861750008D8
:1000B000D10E0008617500086175000861750008BF
:1000C00061750008617500086175000861750008B8
:1000D000E10E00086175000861750008617500088F
:1000E0006175000861750008000000006175000876
:1000F0006175000861750008617500086175000888
:100100006175000861750008617500086175000877
:1001100061750008F10E000861750008617500083E
:100120006175000861750008617500086175000857
:100130006175000861750008617500086175000847
:1001400000000000000000000000000000000000AF
:100150006175000861750008617500086175000827
:100160006175000861750008617500086175000817
:1001700061750008617500086175000800000000E5
:1001800061750008617500086175000861750008F7
:1001900061750008617500086175000861750008E7
:1001A00061750008617500086175000800000000B5
:1001B00061750008617500086175000861750008C7
:1001C0006175000861750008000000000000000073
:1001D0000000000000000000617500080000000041
:1001E000000000000000000000000000000000000F
:1001F0000000000000000000617500086175000843
:100200006175000861750008000000006175000854
:100210006175000861750008617500086175000866
:100220006175000800000000617500080000000012
:100230006175000861750008000000006175000824
:100240006175000861750008617500086175000836
:100250006175000861750008617500086175000826
:100260006175000861750008617500086175000816
:1002700061750008617500086175000800000000E4
:1002800061750008617500086175000861750008F6
:1002900000000000617500086175000800000000A2
:1002A00000000000617500086175000861750008B4
:1002B000617500086175000861750008010F00088C
:0C02C000110F000861750008617500084E
:1002D00010B5054C237833B9044B13B10448AFF380
:1002E00000800123237010BD1400002400000000D2
:1002F000D875000808B5034B1BB103490348AFF399
:10030000008008BD0000000018000024D875000817
:1003100053B94AB9002908BF00281CBF4FF0FF316C
:100320004FF0FF3000F074B9ADF1080C6DE904CE68
:1003300000F006F8DDF804E0DDE9022304B07047C0
:100340002DE9F047089D04468E46002B4DD18A4288
:10035000944669D9B2FA82F252B101FA02F3C2F1BB
:10036000200120FA01F10CFA02FC41EA030E94404C
:100370004FEA1C48210CBEFBF8F61FFA8CF708FB6D
:1003800016E341EA034306FB07F199420AD91CEB45
:10039000030306F1FF3080F01F81994240F21C8177
:1003A000023E63445B1AA4B2B3FBF8F008FB1033BF
:1003B00044EA034400FB07F7A7420AD91CEB0404F4
:1003C00000F1FF3380F00A81A74240F207816444C4
:1003D000023840EA0640E41B00261DB1D440002349
:1003E000C5E900433146BDE8F0878B4209D9002DAD
:1003F00000F0EF800026C5E9000130463146BDE837
:10040000F087B3FA83F6002E4AD18B4202D38242A0
:1004100000F2F980841A61EB030301209E46002D4F
:10042000E0D0C5E9004EDDE702B9FFDEB2FA82F2A4
:10043000002A40F09280A1EB0C014FEA1C471FFA02
:100440008CFE0126200CB1FBF7F307FB131140EAE9
:1004500001410EFB03F0884208D91CEB010103F1B6
:10046000FF3802D2884200F2CB804346091AA4B278
:10047000B1FBF7F007FB101144EA01440EFB00FE4C
:10048000A64508D91CEB040400F1FF3102D2A645B1
:1004900000F2BB800846A4EB0E0440EA03409CE750
:1004A000C6F12007B34022FA07FC4CEA030C20FAFD
:1004B00007F401FA06F31C43F9404FEA1C4900FA1D
:1004C00006F3B1FBF9F8200C1FFA8CFE09FB18119A
:1004D00040EA014108FB0EF0884202FA06F20BD90D
:1004E0001CEB010108F1FF3A80F08880884240F25D
:1004F0008580A8F102086144091AA4B2B1FBF9F0A1
:1005000009FB101144EA014100FB0EFE8E4508D99B
:100510001CEB010100F1FF346CD28E456AD9023820
:10052000614440EA0840A0FB0294A1EB0E01A14205
:10053000C846A64656D353D05DB1B3EB080261EB73
:100540000E0101FA07F722FA06F3F1401F43C5E94D
:10055000007100263146BDE8F087C2F12003D84083
:100560000CFA02FC21FA03F3914001434FEA1C47C5
:100570001FFA8CFEB3FBF7F007FB10360B0C43EAB7
:10058000064300FB0EF69E4204FA02F408D91CEB67
:10059000030300F1FF382FD29E422DD90238634465
:1005A0009B1B89B2B3FBF7F607FB163341EA034105
:1005B00006FB0EF38B4208D91CEB010106F1FF3854
:1005C00016D28B4214D9023E6144C91A46EA00464B
:1005D00038E72E46284605E70646E3E61846F8E6DD
:1005E0004B45A9D2B9EB020864EB0C0E0138A3E726
:1005F0004646EAE7204694E74046D1E7D0467BE707
:10060000023B614432E7304609E76444023842E77E
:10061000704700BF70B58CB000240794089409940B
:100620000A940B943C4BD3F8E02042F00402C3F848
:10063000E020D3F8E02002F004020192019AD3F8FE
:10064000E02042F08002C3F8E020D3F8E02002F07E
:1006500080020292029AD3F8E02042F01002C3F81E
:10066000E020D3F8E02002F010020392039AD3F8BE
:10067000E02042F00202C3F8E020D3F8E02002F0CC
:1006800002020492049AD3F8E02042F00802C3F870
:10069000E020D3F8E02002F008020592059AD3F892
:1006A000E02042F00102C3F8E020D3F8E03003F08C
:1006B00001030693069B194D01224FF40041284681
:1006C00002F006FC164E01224FF48071304602F013
:1006D000FFFB4FF4C04307934FF48813089309942A
:1006E00007A9284602F0EAFA4FF4004307930124D1
:1006F000089409940A9407A9284602F0DFFA4FF4F7
:1007000080730793089409940A9407A9304602F06D
:10071000D5FA0CB070BD00BF00440258001002585A
:10072000000C025808B5012006F0E4FAFBE70000CF
:10073000034B0360034B0B604FF4806313607047FF
:10074000341000243400002410B588B00DF1040CDE
:10075000074C0FCCACE80F0094E807008CE80700CA
:10076000002101A806F091FA024B186008B010BDF4
:10077000F07500083000002400B583B0134BD3F8A7
:10078000D82042F00102C3F8D820D3F8D83003F0C3
:1007900001030193019B002205210B2000F03AFC8C
:1007A0000B2000F06DFC002205210C2000F032FC33
:1007B0000C2000F065FC002205210D2000F02AFC31
:1007C0000D2000F05DFC03B05DF804FB004402580E
:1007D00010B51748174B036000238360C360037490
:1007E0004374837401224261082181612821C1611F
:1007F0002B21016242620A2181621D24C4620163CD
:1008000043638263C26320210164042242648364DF
:10081000C264036542658365C3650166436682669B
:1008200003F028FE00B910BD06F04EFDFBE700BF47
:10083000A410002400A0004010B51748174B036017
:1008400000238360C3600374437483740122426194
:10085000082181612821C1612B21016242620A21A4
:1008600081621D24C462016343638263C2632021E9
:100870000164042242648364C26403654265836543
:10088000C36501664366826603F0F4FD00B910BDDE
:1008900006F01AFDFBE700BF4411002400A400404D
:1008A00010B51748174B036000238360C3600374BF
:1008B0004374837401224261082181612821C1614E
:1008C0002B21016242620A2181621D24C4620163FC
:1008D00043638263C263202101640422426483640F
:1008E000C264036542658365C365016643668266CB
:1008F00003F0C0FD00B910BD06F0E6FCFBE700BF49
:10090000E411002400D4004030B5BBB004460021FF
:1009100035913691379138913991B82206A806F071
:1009200053FE2368774A934208D0774A93424BD0CC
:10093000764A934200F096803BB030BD4FF40042BF
:100940000023CDE906234FF08053219306A801F040
:10095000A5FA40BB6E4A136801331360012B25D002
:100960006C4BD3F8E02042F00802C3F8E020D3F843
:10097000E03003F008030193019B03233593022326
:1009800036930024379438940923399335A9624863
:1009900002F094F922460521132000F03BFB1320BE
:1009A00000F06EFBC8E706F08FFCD3E7594BD3F895
:1009B000EC2042F48072C3F8EC20D3F8EC3003F45E
:1009C00080730093009BCBE74FF400420023CDE9F6
:1009D00006234FF08053219306A801F05FFA80BBF5
:1009E0004B4A136801331360012B2DD0494BD3F8C8
:1009F000E02042F00202C3F8E020D3F8E03003F038
:100A000002030393039B6023359302233693002450
:100A1000379438940923399335A9404802F04EF9A8
:100A200022460521142000F0F5FA142000F028FBDE
:100A300022460521162000F0EDFA162000F020FBDA
:100A40007AE706F041FCCBE7324BD3F8EC2042F4D6
:100A50008072C3F8EC20D3F8EC3003F48073029377
:100A6000029BC3E74FF400420023CDE906234FF079
:100A70008053219306A801F011FA88BB244A136819
:100A800001331360012B2ED0224BD3F8E02042F02B
:100A90000802C3F8E020D3F8E03003F00803059320
:100AA000059B4FF44053359302233693002437942B
:100AB00038940525399535A9174802F0FFF82246E4
:100AC00029469F2000F0A6FA9F2000F0D9FA22467E
:100AD0002946A02000F09EFAA02000F0D1FA2BE7D2
:100AE00006F0F2FBCAE70B4BD3F8EC2042F480721D
:100AF000C3F8EC20D3F8EC3003F480730493049B28
:100B0000C2E700BF00A0004000A4004000D40040A5
:100B1000A010002400440258000C0258000402589F
:100B200008B51548154B03604FF48003436000235C
:100B300083600722C2604FF0007202614FF0807242
:100B400042614FF0806282614FF00052C2610362E5
:100B500043628362C36243638363C3630364436426
:100B60008364C36403654365836504F0DDF800B9FD
:100B700008BD06F0A9FBFBE7741300240038004011
:100B800010B5B6B0044600213191329133913491C1
:100B90003591B82202A806F017FD2268454B9A420B
:100BA00001D036B010BD4FF480520023CDE90223AE
:100BB00006230493502305930423069302230793EB
:100BC0000893802309934FF48053199302A801F0EE
:100BD00065F9002865D1384BD3F8E82042F480420B
:100BE000C3F8E820D3F8E82002F480420092009A8B
:100BF000D3F8E02042F00202C3F8E020D3F8E0305E
:100C000003F002030193019B4FF444433193022309
:100C1000329301233393032334930523359331A96E
:100C2000264802F04BF82648264B036027234360F2
:100C300000238360C3604FF480620261436183617B
:100C40004FF48072C2614FF440320262436202F09C
:100C50007FFA48BB1A4BE3679C631B481B4B03603E
:100C600028234360402383600023C3604FF48062E5
:100C70000261436183614FF48072C2614FF480323C
:100C80000262436202F064FA88B90F4BA3679C6367
:100C900000220521242000F0BDF9242000F0F0F905
:100CA0007FE706F011FB96E706F00EFBD2E706F0B1
:100CB0000BFBEAE7003800400044025800040258E9
:100CC0008412002410000240FC120024280002407C
:100CD00008B51A481A4B03601A4B43604FF480530F
:100CE00083604FF40053C3604FF4806303610C23AF
:100CF000436100238361C36103624362836205F041
:100D000092FA70B900210D4805F008FB60B9002186
:100D10000A4805F028FB50B9084805F0E0FA48B940
:100D200008BD06F0D1FAEDE706F0CEFAEFE706F0DF
:100D3000CBFAF1E706F0C8FAF2E700BF741400241A
:100D400000500040A086010070B5B8B004460021F4
:100D500033913491359136913791B82204A806F039
:100D600033FC2268394B9A4201D038B070BD022260
:100D70000023CDE9042304A801F090F800285FD1F6
:100D8000334BD3F8E82042F48012C3F8E820D3F8BC
:100D9000E82002F480120192019AD3F8E02042F098
:100DA0000202C3F8E020D3F8E02002F0020202922F
:100DB000029AD3F8E02042F00802C3F8E020D3F80A
:100DC000E03003F008030393039B4FF40053339385
:100DD000022634960025359536950E23379333A990
:100DE0001C4801F06BFF042333933496359503239D
:100DF00036930823379333A9174801F05FFF17484C
:100E0000174B0360412343608560C5604FF48063E6
:100E1000036145618561C5614FF4403303624562FA
:100E200002F096F978B90D4BC4F880309C6300222B
:100E30000521352000F0EEF8352000F021F994E787
:100E400006F042FA9CE706F03FFAECE7005000405B
:100E50000044025800040258000C0258FC130024FD
:100E600040000240FEE7FEE7FEE7FEE7FEE77047D0
:100E700008B5024802F00EFE08BD00BF841200242F
:100E800008B5024802F006FE08BD00BFFC120024AF
:100E900008B5024802F0FEFD08BD00BFFC130024A7
:100EA00008B5024803F042FD08BD00BFA4100024AD
:100EB00008B5024803F03AFD08BD00BF4411002404
:100EC00008B5024803F032FD08BD00BF44110024FC
:100ED00008B5024804F078F908BD00BF08150024E1
:100EE00008B5024803F0FAFF08BD00BF74130024E0
:100EF00008B5024804F03EFB08BD00BF741400248E
:100F000008B5024803F012FD08BD00BFE41100243B
:100F100008B5024803F00AFD08BD00BFE411002433
:100F200000B583B00A4BD3F8F42042F00202C3F8B4
:100F3000F420D3F8F43003F002030193019B002264
:100F40000F216FF0010000F065F803B05DF804FBBD
:100F5000004402580F2801D90120704710B58AB00B
:100F60000446002201461C2000F054F81C2000F02A
:100F700087F81B4B1C601B4BD3F8E82042F00102A2
:100F8000C3F8E820D3F8E83003F001030093009B96
:100F900001A902A800F04CFE079BC3B900F024FE93
:100FA00003461148A0FB03239B0C013B0F484FF065
:100FB0008042026040F2E732C26043600023036176
:100FC000836004F057FA30B101200AB010BD00F080
:100FD0000BFE4300E5E7054804F0A2F8F5E700BF83
:100FE000040000240044025883DE1B43081500243B
:100FF0000649CB6823F4E0631B041B0C000200F4D9
:10100000E0600343024A1A43CA60704700ED00E003
:101010000000FA0500B5174BDB68C3F30223C3F1E8
:10102000070CBCF1040F28BF4FF0040C03F1040EB1
:10103000BEF1060F14D9033B4FF0FF3E0EFA0CFC35
:1010400021EA0C0199400EFA03F322EA0303194343
:10105000002807DB0901C9B2074B19545DF804FBEE
:101060000023E9E700F00F000901C9B2034B19544E
:10107000F4E700BF00ED00E000E400E014ED00E064
:10108000002807DB00F01F02400901239340024AB9
:1010900042F82030704700BF00E100E0BFF35F8FEF
:1010A000044B5A6A22F480325A620022C3F8942018
:1010B000704700BF00ED00E040F00100054BC3F8B1
:1010C00094005A6A42F480325A62BFF34F8FBFF3E2
:1010D0006F8F704700ED00E04378144AC2F89830F3
:1010E000D2F8A03023F00103C2F8A0304368C2F860
:1010F0009C30017BC37A1B0643EA0173817A43EA81
:10110000C143417B43EA8143817B43EA4143C17B45
:1011100043EA0143417A43EA0123017A43EA410366
:1011200001780B43C2F8A030704700BF00ED00E02B
:10113000002800F0D78238B50446036813F0010F89
:1011400025D0A04A136903F03803926A102B15D0FA
:10115000182B0FD06368B3F5803F3FD0002B53D1DD
:10116000984B1A6822F480321A601A6822F480229E
:101170001A6038E002F00302022AEBD1914B1B689F
:1011800013F4003F03D06368002B00F0AD822368A6
:1011900013F0020F00F088808A4A1369926A13F0F4
:1011A00038035AD0182B55D0E368002B00F0A980E3
:1011B00084490A6822F0190213430B6003F06AF8AD
:1011C0000546804B1B6813F0040F40F0918003F03C
:1011D00061F8401B0228F4D903208CE2794A136895
:1011E00043F48033136063682BB303F053F8054670
:1011F000744B1B6813F4003FC9D103F04BF8401B3C
:101200006428F5D9032076E2B3F5A02F09D06D4B01
:101210001A6822F480321A601A6822F480221A6056
:10122000E1E7684B1A6842F480221A601A6842F4B7
:1012300080321A60D7E703F02DF80546614B1B6832
:1012400013F4003FA3D003F025F8401B6428F5D920
:10125000032050E212F0030FA6D15A4B1B6813F083
:10126000040F03D0E368002B00F04082554A136856
:1012700023F01903E1680B43136003F00BF80546F4
:10128000504B1B6813F0040F06D103F003F8401B0A
:101290000228F5D903202EE24A4A536823F0FE4380
:1012A000216943EA01635360236813F0100F51D0A2
:1012B000444A136903F03803926A082B39D0182B7B
:1012C00033D0E369002B69D03E4A136843F08003B2
:1012D000136002F0DFFF05463A4B1B6813F4807F72
:1012E00053D102F0D7FF401B0228F5D9032002E2B8
:1012F000344A536823F0FE43216943EA0163536093
:10130000D2E7304A136823F00103136002F0C2FFF2
:1013100005462C4B1B6813F0040FC5D002F0BAFF32
:10132000401B0228F5D90320E5E102F00302012A5F
:10133000C7D1244B1B6813F4807F03D0E369802B53
:1013400040F0D6811F4AD36823F07C53216A43EAD8
:101350000163D360236813F0080F49D06369002B41
:1013600032D0184A536F43F00103536702F092FFE3
:101370000546144B5B6F13F0020F39D102F08AFF60
:10138000401B0228F5D90320B5E10E4AD36823F0AB
:101390007C53216A43EA0163D360DBE7094A13689F
:1013A00023F08003136002F075FF0546054B1B68B0
:1013B00013F4807FCED002F06DFF401B0228F5D9D8
:1013C000032098E1004402589D4A536F23F0010323
:1013D000536702F05FFF0546994B5B6F13F0020FF6
:1013E00006D002F057FF401B0228F5D9032082E106
:1013F000236813F0200F29D0A3699BB1904A13688A
:1014000043F48053136002F045FF05468C4B1B6884
:1014100013F4005F1AD102F03DFF401B0228F5D9FA
:10142000032068E1864A136823F48053136002F0B6
:1014300031FF0546824B1B6813F4005F06D002F0B3
:1014400029FF401B0228F5D9032054E1236813F03B
:10145000040F21D1636A002B00F04C81784A126995
:1014600002F03802182A00F0F380022B75D0744A7B
:10147000136823F08073136002F00CFF0446704B76
:101480001B6813F0007F00F0D88002F003FF001B00
:101490000228F4D903202EE16A4A136843F48073CA
:1014A000136002F0F7FE0546664B1B6813F4807F5D
:1014B00006D102F0EFFE401B6428F5D903201AE1A3
:1014C000A368012B0AD00BBB5D4B1A6F22F00102FF
:1014D0001A671A6F22F004021A6704E0584A136F61
:1014E00043F001031367A36833B302F0D3FE05464C
:1014F000534B1B6F13F0020FACD102F0CBFE401B1D
:1015000041F288339842F3D90320F4E0052B09D047
:101510004B4B1A6F22F001021A671A6F22F0040275
:101520001A67E0E7464B1A6F42F004021A671A6F17
:1015300042F001021A67D6E702F0ACFE0546404BC6
:101540001B6F13F0020F85D002F0A4FE401B41F286
:1015500088339842F3D90320CDE0394A136823F049
:101560008073136002F096FE0546354B1B6813F03E
:10157000007F06D002F08EFE401B0228F5D9032022
:10158000B9E02F4B996A304A0A40A16AE06A41EA01
:1015900000110A439A62226B013AC2F30802616B9E
:1015A0000139490289B20A43A16B0139090401F4E6
:1015B000FE010A43E16B0139090601F0FE410A43CD
:1015C0001A63DA6A22F00102DA62596B1F4A0A4092
:1015D000A16C42EAC1025A63DA6A22F00C02216C61
:1015E0000A43DA62DA6A22F00202616C0A43DA62C2
:1015F000DA6A42F48032DA62DA6A42F40032DA629B
:10160000DA6A42F48022DA62DA6A42F00102DA62CD
:101610001A6842F080721A6002F03CFE0446084BE1
:101620001B6813F0007F06D102F034FE001B022875
:10163000F5D903205FE000205DE000205BE000BF03
:1016400000440258004802580CFCFFFF0700FFFF4F
:1016500030498A6A086B012B4ED002F00303A16A5D
:101660008B424BD1C2F30512E36A9A4248D1C0F3D0
:101670000802236B013B9A4244D1C0F34622636BBC
:10168000013B9A4240D1C0F30642A36B013B9A4210
:101690003CD1C0F30660E36B013B984238D11D4B4F
:1016A0005B6BC3F3CC03A26C9A4201D1002022E011
:1016B000184AD36A23F00103D36202F0EBFD05461A
:1016C00002F0E8FDA842FBD0124A516B124B0B40CE
:1016D000A16C43EAC1035363D36A43F00103D362AD
:1016E000002008E001207047012004E0012002E012
:1016F000012000E0002038BD0120FCE70120FAE7CE
:101700000120F8E70120F6E70120F4E70120F2E7E5
:101710000120F0E7004402580700FFFF744B1B69EB
:1017200003F03803102B00F0DE80182B10D00BB123
:10173000704870476E4B1B6813F0200F00F0D58087
:101740006B4B1868C0F3C1006B4B23FA00F0704775
:1017500010B4674A916A01F00301946AC4F305105A
:10176000D36A03F0010C536BC3F3CC030CFB03F3FC
:1017700007EE903AF8EE677A14F47C7F00F09380DD
:10178000012965D0022900F09180E1B107EE100A2D
:10179000F8EE476A9FED596A86EE267A544B1B6B2A
:1017A000C3F3080306EE903AF8EE666A9FED546ABA
:1017B00067EE867A76EEA77AF7EE006A77EEA67A7B
:1017C00027EE277A60E0136813F0200F23D011462C
:1017D0001268C2F3C102484BD34007EE103AF8EE4C
:1017E000476A07EE100AB8EE476A86EE867A0B6BF8
:1017F000C3F3080306EE903AF8EE666A9FED406A7E
:1018000067EE867A76EEA77AF7EE006A77EEA67A2A
:1018100027EE277A38E007EE100AF8EE476A9FEDC8
:10182000396A86EE267A324B1B6BC3F3080306EE49
:10183000903AF8EE666A9FED326A67EE867A76EE47
:10184000A77AF7EE006A77EEA67A27EE277A1BE0F2
:1018500007EE100AF8EE476A9FED286A86EE267AB0
:10186000234B1B6BC3F3080306EE903AF8EE666A4F
:101870009FED236A67EE867A76EEA77AF7EE006A26
:1018800077EEA67A27EE277A194B1B6BC3F3462314
:10189000013307EE903AF8EE677AC7EE276AFCEE5E
:1018A000E67A17EE900A5DF8044B704707EE100ACF
:1018B000F8EE476A9FED146A86EE267A0C4B1B6B96
:1018C000C3F3080306EE903AF8EE666A9FED0C6AE1
:1018D00067EE867A76EEA77AF7EE006A77EEA67A5A
:1018E00027EE277AD0E7094870470348704700BFC2
:1018F0000044025800093D000090D0030024744ABF
:10190000000000390024744C001BB74B00366E01F8
:10191000002800F0328170B50D4604469B4B1B68D1
:1019200003F00F038B420BD2984A136823F00F0386
:101930000B431360136803F00F038B4240F01F81C9
:10194000236813F0040F0CD02269914B9B6903F0BC
:1019500070039A4205D98E498B6923F070031A43AC
:101960008A61236813F0080F0CD06269884BDB6929
:1019700003F070039A4205D98549CB6923F07003BF
:101980001A43CA61236813F0100F0CD0A269804B70
:10199000DB6903F4E0639A4205D97D49CB6923F4FE
:1019A000E0631A43CA61236813F0200F0CD0E26988
:1019B000774B1B6A03F070039A4205D974490B6A8E
:1019C00023F070031A430A62236813F0020F0CD04D
:1019D000E2686F4B9B6903F00F039A4205D96C498B
:1019E0008B6923F00F031A438A61236813F0010FF8
:1019F00041D0674A936923F47063A1680B439361F4
:101A00006368022B0AD0032B27D0012B2CD0604A0D
:101A1000126812F0040F06D10120ADE0126812F432
:101A2000003F00F0AE805A490A6922F007021343D2
:101A30000B6102F02FFC0646554B1B6903F038037F
:101A40006268B3EBC20F16D002F024FC801B41F297
:101A500088339842F0D903208EE04D4A126812F084
:101A6000007FE0D1012087E0494A126812F4807FAC
:101A7000D9D1012080E0236813F0020F0CD0E26876
:101A8000434B9B6903F00F039A4205D240498B698F
:101A900023F00F031A438A613C4B1B6803F00F03CA
:101AA000AB420AD9394A136823F00F032B43136062
:101AB000136803F00F03AB4265D1236813F0040FE2
:101AC0000CD02269324B9B6903F070039A4205D215
:101AD0002F498B6923F070031A438A61236813F03E
:101AE000080F0CD062692A4BDB6903F070039A423D
:101AF00005D22749CB6923F070031A43CA612368D2
:101B000013F0100F0CD0A269214BDB6903F4E063E2
:101B10009A4205D21E49CB6923F4E0631A43CA6195
:101B2000236813F0200F0CD0E269194B1B6A03F0F5
:101B300070039A4205D216490B6A23F070031A43C8
:101B40000A62FFF7EBFD12498B69C3F30323114AC5
:101B5000D35C03F01F03D8408B6903F00F03D35C01
:101B600003F01F0320FA03F30B4A13600B4B1860BA
:101B70000B4B1868FFF7EEF970BD0120704701208C
:101B8000FAE70120F8E70120F6E700BF0020005245
:101B900000440258A47600080C0000240800002429
:101BA0000400002408B5FFF7B9FD0B4A9369C3F39D
:101BB00003230A49CB5C03F01F0320FA03F3926965
:101BC00002F00F02885C00F01F0023FA00F0044AC4
:101BD0001060044A136008BD00440258A47600084F
:101BE0000C0000240800002408B5FFF7DBFF054BBC
:101BF000DB69C3F30213044AD35C03F01F03D8402C
:101C000008BD00BF00440258A476000808B5FFF7DD
:101C1000C9FF054BDB69C3F30223044AD35C03F01D
:101C20001F03D84008BD00BF00440258A476000836
:101C30003F230360114B1A6902F0070242609A6960
:101C400002F4706282609A6902F00F02C2609A69BF
:101C500002F070020261DA6902F070024261DA6930
:101C600002F4E06282611B6A03F07003C361044BFB
:101C70001B6803F00F030B60704700BF004402585D
:101C800000200052404B9B6A03F00303032B79D0E2
:101C900070B505460E463C4A136823F08063136016
:101CA00002F0F8FA0446384B1B6813F0006F06D0B8
:101CB00002F0F0FA031B022BF5D9032070BD324B62
:101CC0009A6A22F47C32296842EA01329A626A688E
:101CD000013AC2F30802A9680139490289B20A43EC
:101CE000E9680139090401F4FE010A43296901394F
:101CF000090601F0FE410A439A63DA6A22F0C00243
:101D000069690A43DA62DA6A22F02002A9690A43A1
:101D1000DA62DA6A22F01002DA62D96B1B4A0A40F0
:101D2000E96942EAC102DA63DA6A42F01002DA6271
:101D3000C6B91A46DB6A43F40023D362124A136819
:101D400043F08063136002F0A5FA04460E4B1B6853
:101D500013F0006F14D102F09DFA001B0228F5D990
:101D60000320ABE7012E05D0074AD36A43F40013E2
:101D7000D362E3E7044AD36A43F48013D362DDE716
:101D800000209BE701207047004402580700FFFF36
:101D9000404B9B6A03F00303032B79D070B50546D3
:101DA0000E463C4A136823F08053136002F072FA27
:101DB0000446384B1B6813F0005F06D002F06AFA45
:101DC000031B022BF5D9032070BD324B9A6A22F017
:101DD0007C72296842EA01529A626A68013AC2F347
:101DE0000802A9680139490289B20A43E968013940
:101DF000090401F4FE010A4329690139090601F0C9
:101E0000FE410A431A64DA6A22F4406269690A43AD
:101E1000DA62DA6A22F40072A9690A43DA62DA6ADB
:101E200022F48072DA62596C1B4A0A40E96942EA7C
:101E3000C1025A64DA6A42F48072DA62C6B91A469A
:101E4000DB6A43F48003D362124A136843F0805381
:101E5000136002F01FFA04460E4B1B6813F0005F7C
:101E600014D102F017FA001B0228F5D90320ABE7C2
:101E7000012E05D0074AD36A43F08073D362E3E7AB
:101E8000044AD36A43F40003D362DDE700209BE7F2
:101E900001207047004402580700FFFFF8B50446D0
:101EA000036813F0006F30D0436EB3F5001F26D0E7
:101EB0000ED8EBB1B3F5801F07D102210830FFF730
:101EC000E1FE054645B12E4621E0012635461EE0DD
:101ED000B3F5401F09D100259F4A136D23F4401329
:101EE000616E0B431365002611E0012635460EE0B6
:101EF000994AD36A43F40033D3620025ECE7022108
:101F00002830FFF745FF0546DCE700263546236805
:101F100013F4807F27D0A36D042B20D8DFE803F0D3
:101F20000311180808008C4AD36A43F40033D362C3
:101F3000C5B9894A136D23F00703A16D0B431365DF
:101F400011E0002104F10800FFF79CFE0546EFE7D1
:101F5000002104F12800FFF71BFF0546E8E70126F2
:101F6000354600E02E46236813F4806F22D0D4F863
:101F7000A430B3F5800F3FD00DD8BBB3B3F5001F2D
:101F800006D1002104F10800FFF77CFE054608E0B9
:101F9000012635460EE0B3F5000F02D0B3F5200F51
:101FA0001ED185BB6C4A936D23F46003D4F8A41052
:101FB0000B439365236813F4006F39D0D4F8A8302D
:101FC000B3F1007F5AD023D8002B51D0B3F1807FDA
:101FD0001BD1002104F10800FFF754FE05461DE067
:101FE000B3F5C00FDDD001263546E3E75A4AD36A80
:101FF00043F40033D362D4E7002104F12800FFF753
:10200000C7FE0546CDE72E46D4E7012635460FE04C
:10201000B3F1806F02D0B3F1A06F23D1002D34D182
:102020004D4A936D23F0E063D4F8A8100B439365F9
:10203000236813F0007F31D0E36C202B42D029D8E5
:1020400033B1102B23D1444AD36A43F40033D36213
:10205000002D3ED1404AD36C23F03003E16C0B439A
:10206000D3641BE0B3F1407FD8D001263546DFE7CB
:10207000394AD36A43F40033D362CFE7002104F135
:102080002800FFF785FE0546C8E72E46D0E7012663
:10209000354603E0302BDBD001263546236813F4A8
:1020A000805F3BD0E36DB3F5005F2FD016D83BB314
:1020B000B3F5805F0FD1002104F10800FFF7E2FDC6
:1020C000054611E0022104F10800FFF7DBFD05469B
:1020D000BEE72E46E2E7012635461FE0B3F5405F36
:1020E00002D0B3F5804F08D1BDB91B4A136D23F45C
:1020F000E043E16D0B43136510E0012635460DE02A
:10210000154AD36A43F40033D362EDE7002104F1AA
:102110002800FFF73DFE0546E6E72E46236813F448
:10212000005F29D0236EB3F5003F44D019D843B1E6
:10213000B3F5803F12D1012104F10800FFF7A2FDA1
:102140000546002D3ED1044A136D23F4E023216E91
:102150000B43136510E000BF0044025801263546CA
:102160000AE0B3F5802FECD0B3F5A02FE9D0B3F59A
:10217000403FE6D001263546236813F4804F31D026
:10218000D4F8AC30B3F1005F45D020D843B1B3F1FF
:10219000805F19D1012104F10800FFF773FD0546A6
:1021A000002D3FD18F4A936D23F0E043D4F8AC105B
:1021B0000B43936516E0012104F12800FFF7E8FDC9
:1021C0000546BEE72E46D7E7012635460AE0B3F1BD
:1021D000804FE5D0B3F1A04FE2D0B3F1405FDFD044
:1021E00001263546236813F4004F09D0E36EB3F19E
:1021F000805F19D0B3F1005F24D0D3B101263546FA
:10220000236813F0807F33D0A36C032B5BD8DFE807
:1022100003F027225327012104F12800FFF7B8FD1E
:102220000546BDE72E46DDE76E4AD36A43F4003328
:10223000D36275B96B4A136D23F04053E16E0B43C3
:102240001365DDE7012104F10800FFF71BFD0546DA
:10225000EFE72E46D4E7634AD36A43F40033D362F0
:10226000A5BB604AD36C23F00303A16C0B43D3647A
:10227000236813F4800F2BD1236813F0010F00F0B3
:10228000A380A36F282B00F29D80DFE803F08B9BD7
:102290009B9B9B9B9B9B859B9B9B9B9B9B9B949BAB
:1022A0009B9B9B9B9B9B8B9B9B9B9B9B9B9B8B9B9E
:1022B0009B9B9B9B9B9B8B00022104F10800FFF7DB
:1022C000E1FC0546CCE701263546D1E72E46CFE7AF
:1022D000454A136843F48073136001F0DBFF07463F
:1022E000414B1B6813F4807F05D101F0D3FFC01B65
:1022F0006428F5D90325002D4AD13A4B1B6FD4F839
:10230000B020534013F4407F0CD0364B1A6F22F4A8
:102310004072196F41F480311967196F21F48031CF
:1023200019671A67D4F8B030B3F5807F15D08DBB2C
:10233000D4F8B03003F44072B2F5407F1ED0294A81
:10234000136923F47C53136126490B6FD4F8B02032
:10235000C2F30B0213430B678EE701F09BFF0746A6
:10236000204B1B6F13F0020FE1D101F093FFC01B54
:1023700041F288339842F3D90325D8E71948026916
:1023800022F47C52194901EA131313430361DBE77A
:102390002E4671E72E466FE7012104F10800FFF792
:1023A00071FC0546E5B90F4A536D23F03803A16F60
:1023B0000B43536508E0012104F12800FFF7E8FC16
:1023C0000546EFE701263546236813F0020F1DD0BE
:1023D000636F052B2ED8DFE803F0110B26111111C6
:1023E0002E46F1E70044025800480258CFFFFF0094
:1023F000012104F10800FFF745FC0546EDB9A94AA3
:10240000536D23F00703616F0B435365236813F08B
:10241000040F23D0D4F89030052B45D8DFE803F023
:10242000150F3D151515012104F12800FFF7B0FC2B
:102430000546E3E701263546E8E72E46E6E70121B3
:1024400004F10800FFF71EFC054685BB954A936D15
:1024500023F00703D4F890100B439365236813F01F
:10246000200F34D0D4F88C30B3F1005F4ED023D895
:1024700043B1B3F1805F1CD1002104F10800FFF7E4
:1024800001FC0546002D48D1864A536D23F0E043F8
:10249000D4F88C100B43536519E0012104F1280096
:1024A000FFF776FC0546D0E701263546D6E72E46EF
:1024B000D4E7012635460AE0B3F1804FE2D0B3F10C
:1024C000A04FDFD0B3F1405FDCD001263546236852
:1024D00013F0400F31D0D4F89830B3F5006F4DD0E1
:1024E00020D843B1B3F5806F19D1002104F1080061
:1024F000FFF7C8FB0546002D47D16A4A936D23F4C8
:10250000E053D4F898100B43936516E0022104F1D0
:102510002800FFF73DFC0546B4E72E46D7E7012625
:1025200035460AE0B3F5805FE5D0B3F5A05FE2D0B1
:10253000B3F5406FDFD001263546236813F0800FD6
:1025400033D0D4F89C30B3F5804F00F0A18021D86F
:1025500043B1B3F5005F1AD1002104F10800FFF781
:1025600091FB0546002D40F09A804E4A936D23F46E
:102570006043D4F89C100B43936516E0022104F1EC
:102580002800FFF705FC0546B5E72E46D5E70126EE
:1025900035460AE0B3F5004FE4D0B3F5204FE1D063
:1025A000B3F5C04FDED001263546236813F0080F7F
:1025B0000CD0D4F88030B3F5805F75D0394A536DB4
:1025C00023F44053D4F880100B435365236813F071
:1025D000100F0CD0D4F89430B3F5807F6DD0314A11
:1025E000936D23F44073D4F894100B4393652368E0
:1025F00013F4002F0BD0D4F8A030B3F5803F75D082
:10260000B3F5003F68D0002B60D001263546236823
:1026100013F4802F0CD0D4F88430B3F5001F7DD094
:10262000B3F5401F70D0B3F5801F68D00126354642
:10263000236813F4803F08D0236D002B77D0B3F5C7
:10264000803F00F0828001263546236813F0005F4A
:1026500040F08480236813F4003F00F08C80E36F27
:10266000B3F5807F00F0DF8040F28280B3F5007F19
:1026700003D0B3F5407F40F0D480002D40F0D980E6
:10268000084A536D23F44073E16F0B43536572E0C6
:10269000022104F12800FFF77BFB054662E72E4686
:1026A00083E700BF00440258022104F12800FFF72D
:1026B0006FFB002882D0012680E7022104F1280068
:1026C000FFF766FB00288AD0012688E7002104F185
:1026D0000800FFF7D7FA05467DB9724A936D23F4D7
:1026E0004033D4F8A0100B43936590E7022104F126
:1026F0002800FFF74DFB0546EEE72E4687E7694ABF
:10270000D36A43F40033D3627DB9664A536D23F430
:102710004013D4F884100B43536589E7012104F179
:102720002800FFF735FB0546EEE72E4680E75D4AB9
:10273000D36A43F40033D36275B95A4AD36C23F495
:102740008033216D0B43D3647FE7022104F108003D
:10275000FFF798FA0546EFE72E4676E7022104F1E7
:102760002800FFF715FB00283FF474AF012671E73E
:10277000002B82D00126236813F4801F06D0494A1B
:10278000136D23F00043216F0B431365236813F48B
:10279000001F06D0434A136D23F08073A16E0B43D4
:1027A0001365236813F0804F09D03E4B1A6922F459
:1027B00000421A611A69D4F8B4100A431A612368F6
:1027C000002B06DA374AD36C23F04053616D0B437C
:1027D000D364236813F4000F07D0324A536D23F4F7
:1027E0004003D4F888100B435365636813F0010F5E
:1027F00021D1636813F0020F26D1636813F0040F30
:102800002BD1636813F0080F30D1636813F0100FF9
:1028100035D1636813F0200F3AD106B10126304656
:10282000F8BD0126A7E71F4AD36A43F40033D362F9
:1028300023E72E469FE7002104F10800FFF722FA64
:102840000028D6D00646D4E7012104F10800FFF79E
:1028500019FA0028D1D00646CFE7022104F108007A
:10286000FFF710FA0028CCD00646CAE7002104F191
:102870002800FFF78DFA0028C7D00646C5E70121DA
:1028800004F12800FFF784FA0028C2D00646C0E70A
:10289000022104F12800FFF77BFA0028BDD006468C
:1028A000BBE700BF0044025808B5FFF77BF9054BB2
:1028B0001B6AC3F30213044AD35C03F01F03D8401E
:1028C00008BD00BF00440258A476000810B5774A3E
:1028D000916A946AC4F3053ED36AC3F3001CD36BB8
:1028E000C3F3CC030CFB03F314F47C3F00F0D8805B
:1028F00001F0030107EE903AF8EE677A012965D0FE
:10290000022900F0B080E1B107EE10EAB8EE477A94
:102910009FED676AC6EE076A644B9B6BC3F30803BF
:1029200007EE103AB8EE477A9FED626A67EE867A54
:1029300077EE277AB7EE007A77EE877A66EEA76AA7
:1029400060E0136813F0200F23D011461268C2F321
:10295000C102594BD34007EE103AB8EE477A06EE63
:1029600090EAB8EE666AC7EE066A8B6BC3F308039B
:1029700007EE103AB8EE477A9FED4E6A67EE867A18
:1029800077EE277AB7EE007A77EE877A66EEA76A57
:1029900038E007EE10EAB8EE477A9FED486AC6EED7
:1029A000076A424B9B6BC3F3080307EE103AB8EE7D
:1029B000477A9FED406A67EE867A77EE277AB7EE20
:1029C000007A77EE877A66EEA76A1BE007EE10EAD8
:1029D000B8EE477A9FED366AC6EE076A334B9B6BBB
:1029E000C3F3080307EE103AB8EE477A9FED316A59
:1029F00067EE867A77EE277AB7EE007A77EE877AF7
:102A000066EEA76A294A936BC3F3462307EE103A92
:102A1000B8EE477AB7EE006A37EE067AC6EE877AE6
:102A2000FCEEE77AC0ED007A936BC3F3064307EE42
:102A3000103AB8EE477A37EE067AC6EE877AFCEEA1
:102A4000E77AC0ED017A936BC3F3066307EE903A21
:102A5000F8EE677A77EE867A86EEA77ABCEEC77ACA
:102A600080ED027A10BD07EE10EAB8EE477A9FEDCE
:102A7000146AC6EE076A0D4B9B6BC3F3080307EE9F
:102A8000103AB8EE477A9FED0B6A67EE867A77EEDA
:102A9000277AB7EE007A77EE877A66EEA76AB1E713
:102AA0000023036043608360DCE700BF00440258FA
:102AB0000024744A000000390090D0030024744CB4
:102AC000001BB74B10B5774A916A946AC4F3055E50
:102AD000D36AC3F3002C536CC3F3CC030CFB03F396
:102AE00014F07C7F00F0D88001F0030107EE903AEB
:102AF000F8EE677A012965D0022900F0B080E1B1D3
:102B000007EE10EAB8EE477A9FED676AC6EE076AED
:102B1000644B1B6CC3F3080307EE103AB8EE477A18
:102B20009FED626A67EE867A77EE277AB7EE007AD3
:102B300077EE877A66EEA76A60E0136813F0200FDD
:102B400023D011461268C2F3C102594BD34007EE9D
:102B5000103AB8EE477A06EE90EAB8EE666AC7EE2B
:102B6000066A0B6CC3F3080307EE103AB8EE477A17
:102B70009FED4E6A67EE867A77EE277AB7EE007A97
:102B800077EE877A66EEA76A38E007EE10EAB8EECD
:102B9000477A9FED486AC6EE076A424B1B6CC3F347
:102BA000080307EE103AB8EE477A9FED406A67EEE9
:102BB000867A77EE277AB7EE007A77EE877A66EE36
:102BC000A76A1BE007EE10EAB8EE477A9FED366A77
:102BD000C6EE076A334B1B6CC3F3080307EE103ACB
:102BE000B8EE477A9FED316A67EE867A77EE277AFC
:102BF000B7EE007A77EE877A66EEA76A294A136CF9
:102C0000C3F3462307EE103AB8EE477AB7EE006AF0
:102C100037EE067AC6EE877AFCEEE77AC0ED007AE8
:102C2000136CC3F3064307EE103AB8EE477A37EE5B
:102C3000067AC6EE877AFCEEE77AC0ED017A136C6D
:102C4000C3F3066307EE903AF8EE677A77EE867A7A
:102C500086EEA77ABCEEC77A80ED027A10BD07EE49
:102C600010EAB8EE477A9FED146AC6EE076A0D4B7C
:102C70001B6CC3F3080307EE103AB8EE477A9FEDDA
:102C80000B6A67EE867A77EE277AB7EE007A77EEF0
:102C9000877A66EEA76AB1E700230360436083602A
:102CA000DCE700BF004402580024744A00000039E9
:102CB0000090D0030024744C001BB74BF0B583B0D8
:102CC00000236BE085685E000324B44025EA040518
:102CD000CC68B4402C438460446824EA0C0C4C68F3
:102CE000C4F300149C4044EA0C04446068E0DD082E
:102CF000083550F8256003F007044FEA840C0F24D0
:102D000004FA0CF426EA040E0C6904FA0CF444EA02
:102D10000E0440F825406BE0092400E0002404FA8A
:102D20000EF42C430CF1020C664D45F82C404FF08C
:102D3000B0442568D44325EA02064F6817F4801F83
:102D400001D042EA05064FF0B0452E606D6804EAF6
:102D500005064F6817F4001F01D042EA05064FF040
:102D6000B0456E60D5F8845004EA05064F6817F444
:102D7000003F01D042EA05064FF0B045C5F8846037
:102D8000D5F880502C404E6816F4803F01D042EABE
:102D900005044FF0B042C2F8804001330A6832FAAD
:102DA00003F400F08C804FF0010C0CFA03FC1CEAD9
:102DB0000202F2D04C6804F00304013C012C81D9DA
:102DC0004C6804F00304032C0CD0C4685D004FF081
:102DD000030C0CFA05FC24EA0C0C8C68AC4044EAA9
:102DE0000C04C4604C6804F00304022C3FF47FAF71
:102DF00004684FEA430E4FF0030C0CFA0EFC24EA71
:102E00000C0C4C6804F0030404FA0EF444EA0C04BD
:102E100004604C6814F4403FBFD02B4CD4F8F450FD
:102E200045F00205C4F8F450D4F8F44004F002046C
:102E30000194019C4FEA930C0CF10205214C54F8CB
:102E4000255003F003044FEA840E0F2404FA0EF415
:102E500025EA04051D4CA0423FF460AF04F58064F0
:102E6000A0421ED004F58064A0421CD004F580640A
:102E7000A0421AD004F58064A04218D004F5806402
:102E8000A04216D004F58064A04214D004F58064FA
:102E9000A04212D004F50064A0423FF43DAF0A24E2
:102EA0003DE701243BE7022439E7032437E7042404
:102EB00035E7052433E7062431E707242FE703B07D
:102EC000F0BD00BF00040058004402580000025842
:102ED0000AB181617047090481617047036827491D
:102EE000274A934218BF8B422FD0183293422CD0DE
:102EF0001832934229D01832934226D01832934286
:102F000023D01832934220D0183293421DD002F5BC
:102F10005672934219D01832934216D01832934207
:102F200013D01832934210D0183293420DD0183279
:102F300093420AD01832934207D01832934204D0F9
:102F400023F0FF038365806D704710B4D9B2103948
:102F50000C4AA2FB0142C2F302120B4CA25CC265F6
:102F60005F2907D9094A1A4004328265806D5DF8ED
:102F7000044B7047054A1A408265F7E7100002408B
:102F800028000240ABAAAAAA6476000800FCFFFF52
:102F900083699BB9836A012B0AD0022B02D00BB143
:102FA00000207047C36A13F0807F2AD10020704749
:102FB000C36AB3F1C07F26D000207047B3F5005F2D
:102FC0000AD0836A022B26D9032B26D1C36A13F0B9
:102FD000807F24D100207047836A032B03D8DFE869
:102FE00003F01404140A00207047C36A13F0807FB2
:102FF0000DD100207047C36AB3F1C07F09D0002013
:103000007047012070470120704701207047012060
:103010007047012070470120704700207047012051
:103020007047000003682249224A934218BF8B422E
:1030300028D01432934225D01432934222D0143235
:1030400093421FD0143293421CD01432934219D0B1
:103050001432934216D0DAB2103A1749A1FB021289
:10306000120916491944A8291FD9154B13449B006E
:103070000366144B436602F01F02012303FA02F2B7
:1030800082667047DBB2083B0F4AA2FB03230F4A5C
:1030900002EB1312920002660D4A4266C3F3041358
:1030A000012202FA03F3836670470832DDE700BFAE
:1030B000085402581C540258ABAAAAAAF0FBFDBF40
:1030C0000082001080080240CDCCCCCC00960016C7
:1030D0008058025801794A1E072A2CD830B4036858
:1030E000154D164CA34218BFAB4218D01434A3425E
:1030F00015D01434A34212D01434A3420FD0143488
:10310000A3420CD01434A34209D01434A34206D0F5
:103110000B4B0B449B00C3660A4B036705E00A4B4D
:103120000B449B00C366094B0367012303FA02F2B9
:10313000426730BC70477047085402581C5402580C
:103140003F820010400902403F9600164059025845
:1031500070B5044601F09EF8002C00F0B3810546DE
:1031600023685349534A934218BF8B420CBF012234
:10317000002250D030318B424DD018318B424AD092
:1031800018318B4247D018318B4244D018318B42D2
:1031900041D018318B423ED001F556718B423AD066
:1031A00018318B4237D018318B4234D018318B42D2
:1031B00031D018318B422ED018318B422BD01831A0
:1031C0008B4228D018318B4225D03B493B4A934251
:1031D00018BF8B4200F02E81394A934200F02A81B9
:1031E0001432934200F026811432934200F022817F
:1031F0001432934200F01E811432934200F01A817F
:103200001432934200F0168140236365032384F84F
:10321000353001204AE0022184F83510002184F87D
:1032200034107ABB274A93422CD01832934229D0CB
:103230001832934226D01832934223D01832934248
:1032400020D0183293421DD002F55672934219D005
:103250001832934216D01832934213D01832934248
:1032600010D0183293420DD0183293420AD018323F
:10327000934207D01832934204D01A6822F0010218
:103280001A6003E01A6822F001021A6023681A68C3
:1032900012F0010F18D000F0FDFF431B052BF5D9EC
:1032A00020236365032384F83530012070BD00BFFF
:1032B0001000024028000240085402581C540258D2
:1032C00030540258400002401A687F481040A168FC
:1032D000E2680A4321690A4361690A43A1690A4312
:1032E000E1690A43216A0A430243616A042900F042
:1032F00096806168A1F12905A1F13F00032888BFEC
:10330000052D0AD9A1F14700012806D9A1F14F00E6
:10331000032802D97439032901D842F480121A60B3
:103320002668756925F00705636A1D43042B08D1DB
:10333000A36A1D43E36A23B12046FFF729FE002854
:1033400072D175612046FFF7C9FDE36D03F01F02DE
:103350003F239340836023685C495D4A934218BFD2
:103360008B4242D0183293423FD0183293423CD025
:103370001832934239D01832934236D018329342E1
:1033800033D01832934230D002F5567293422CD08B
:103390001832934229D01832934226D018329342E1
:1033A00023D01832934220D0183293421DD01832C5
:1033B00093421AD01832934217D0464A934214D0FF
:1033C0001432934211D0143293420ED014329342ED
:1033D0000BD01432934208D01432934205D01432E9
:1033E000934202D01432934213D12046FFF71AFEC3
:1033F000A368802B59D0236E22791A60636EA26E67
:103400005A606368013B072B52D90023E3662367A8
:10341000636700206065012384F8353046E7E16A80
:10342000206B01430A4364E740236365012084F86D
:1034300035003BE7022284F83520002284F834204E
:103440001A6825491140A268402A2CD0802A27D02A
:103450000022E06842EAD002206942EAD0026069B4
:1034600042EAD002A06942EAD002E06942EAD00210
:10347000206A42EA10120A431A602268174B13446A
:10348000174AA2FB03231B099B00E3652046FFF7B5
:1034900025FDE26D02F01F0101228A4042605AE7D9
:1034A0004FF48042D5E71022D3E700236360A2E700
:1034B0002046FFF70FFEE36E00221A60236F626F53
:1034C0005A60A6E70120F1E63F8010FE100002409E
:1034D00028000240085402580F00FEFFF8ABFDA779
:1034E000CDCCCCCC70B5044600F0D4FE002C00F05E
:1034F0009181054694F83530DBB2022B06D080234B
:103500006365002384F83430012070BD23688C4942
:103510008C4A934218BF8B4230D0183293422DD040
:10352000183293422AD01832934227D0183293424D
:1035300024D01832934221D0183293421ED002F583
:10354000567293421AD01832934217D018329342CF
:1035500014D01832934211D0183293420ED0183240
:1035600093420BD01832934208D01832934205D0C0
:103570001A6822F00E021A60266809E01A6822F022
:103580001E021A602268536923F080035361266883
:1035900023686B496B4A934218BF8B4242D0183262
:1035A00093423FD0183293423CD01832934239D0E4
:1035B0001832934236D01832934233D018329342A5
:1035C00030D002F5567293422CD01832934229D053
:1035D0001832934226D01832934223D018329342A5
:1035E00020D0183293421DD0183293421AD018328C
:1035F000934217D0544A934214D01432934211D0BC
:10360000143293420ED0143293420BD014329342B0
:1036100008D01432934205D01432934202D01432AF
:10362000934204D1226E136823F4807313602368DD
:103630004349444A934218BF8B422FD018329342D9
:103640002CD01832934229D01832934226D0183207
:10365000934223D01832934220D0183293421DD087
:1036600002F55672934219D01832934216D018328E
:10367000934213D01832934210D0183293420DD097
:10368000183293420AD01832934207D0183293422C
:1036900004D01A6822F001021A6003E01A6822F0CE
:1036A00001021A60336813F0010F0ED000F0F2FD32
:1036B000431B052BF6D920236365032384F835309B
:1036C000002384F8343001201FE723681C491D4A79
:1036D000934218BF8B4239D01832934236D01832F9
:1036E000934233D01832934230D0183293422DD0C7
:1036F000183293422AD01832934227D002F55672DC
:10370000934223D01832934220D0183293421DD0D6
:10371000183293421AD01832934217D0183293427B
:1037200014D01832934211D0183293420ED0A16DAA
:10373000E36D03F01F02012393404B600DE000BFD7
:10374000100002402800024008540258A16DE36DA9
:1037500003F01F023F2393408B6023682E492F4ABA
:10376000934218BF8B4242D0183293423FD0183256
:1037700093423CD01832934239D01832934236D01B
:103780001832934233D01832934230D002F5567239
:1037900093422CD01832934229D01832934226D02B
:1037A0001832934223D01832934220D018329342D9
:1037B0001DD0183293421AD01832934217D0184AAB
:1037C000934214D01432934211D0143293420ED04B
:1037D000143293420BD01432934208D014329342E5
:1037E00005D01432934202D0143293420BD1636E4F
:1037F000A26E5A60E36E33B11A6822F480721A60C6
:10380000236F626F5A60012384F83530002084F8FA
:1038100034007AE6012078E61000024028000240D9
:1038200008540258002800F0298108B5024690F893
:103830003530DBB2022B03D080234365012008BD65
:103840000368904890498B4218BF83420CBF012106
:10385000002166D03030834263D01830834260D07C
:10386000183083425DD0183083425AD018308342DA
:1038700057D01830834254D000F55670834250D050
:10388000183083424DD0183083424AD018308342DA
:1038900047D01830834244D01830834241D018308A
:1038A00083423ED0183083423BD0196821F00E018C
:1038B00019601368A0F5956073498B4218BF834265
:1038C0006AD072498B4267D018318B4264D018316C
:1038D0008B4261D018318B425ED018318B425BD065
:1038E00018318B4258D001F556718B4254D01831A3
:1038F0008B4251D018318B424ED018318B424BD075
:1039000018318B4248D018318B4245D018318B4248
:1039100042D018318B423FD0196821F00101196063
:103920003EE0042082F8350081BB584A93422DD0F6
:10393000183293422AD01832934227D01832934239
:1039400024D01832934221D0183293421ED002F56F
:10395000567293421AD01832934217D018329342BB
:1039600014D01832934211D0183293420ED018322C
:1039700093420BD01832934208D01832934205D0AC
:103980001A6822F001021A60002058E71A6822F033
:1039900001021A60002052E7196821F00101196044
:1039A0001368384838498B4218BF834242D01831D7
:1039B0008B423FD018318B423CD018318B4239D0EA
:1039C00018318B4236D018318B4233D018318B42AC
:1039D00030D001F556718B422CD018318B4229D052
:1039E00018318B4226D018318B4223D018318B42AC
:1039F00020D018318B421DD018318B421AD018318B
:103A00008B4217D022498B4214D014318B4211D0F3
:103A100014318B420ED014318B420BD014318B42B7
:103A200008D014318B4205D014318B4202D01431AE
:103A30008B4217D1116E0B6823F480730B60906D6D
:103A4000D36D03F01F0101238B404360536E916ED1
:103A50005960D36E33B1196821F480711960136F06
:103A6000516F5960012382F83530002382F83430D9
:103A7000136D2BB1104698470020E0E601207047F7
:103A80000020DCE610000240280002404000024016
:103A900008540258F0B583B00446002301937D4BCF
:103AA0001D687D4BA3FB0535AD0A876D3E68D7F8D1
:103AB00000C0036879497A48834218BF8B420CBF23
:103AC0000120002061D0774A93425ED018329342A1
:103AD0005BD01832934258D01832934255D01832E6
:103AE000934252D0183293424FD002F5567293420D
:103AF0004BD01832934248D01832934245D01832F6
:103B0000934242D0183293423FD0183293423CD075
:103B10001832934239D01832934236D06249634A00
:103B2000934218BF8B4212D0614A93420FD0143295
:103B300093420CD01432934209D01432934206D0EF
:103B40001432934203D01432934240F061821A68D7
:103B5000E16D01F01F010420884010EA0C0F00F015
:103B6000A78212F0040F00F0A382786012F4004FD5
:103B700000F05A8212F4803F40F05082A36C002B78
:103B800000F046822046984742E2E26D02F01F01B3
:103B900008228A40324241D070BB424A93422BD025
:103BA0001832934228D01832934225D018329342CB
:103BB00022D0183293421FD0183293421CD002F503
:103BC0005672934218D01832934215D0183293424D
:103BD00012D0183293420FD0183293420CD01832C0
:103BE000934209D01832934206D01832934203D040
:103BF0001A68C2F3C00202E01A68C2F380026AB116
:103C00001A6822F004021A60E36D03F01F02082311
:103C10009340BB60636D43F001036365E26D02F0A6
:103C20001F0226FA02F313F0010F47D023681B4846
:103C30001B498B4218BF83423CD018318B4239D08C
:103C400018318B4236D018318B4233D018318B4229
:103C500030D018318B422DD018318B422AD001F54B
:103C600056718B4226D018318B4223D018318B42AB
:103C700020D018318B421DD018318B421AD0183108
:103C80008B4217D018318B4214D018318B4211D08F
:103C90001B6813E008000024B5814E1B1000024091
:103CA0002800024040000240085402581C540258A8
:103CB000305402585B6913F0800F3BD1E36D03F081
:103CC0001F03042202FA03F3334240D022689648CD
:103CD00096498A4218BF824235D018318A4232D082
:103CE00018318A422FD018318A422CD018318A429A
:103CF00029D018318A4226D018318A4223D001F5C2
:103D000056718A421FD018318A421CD018318A421B
:103D100019D018318A4216D018318A4213D018317E
:103D20008A4210D018318A420DD018318A420AD006
:103D300013680CE0012303FA02F2BA60636D43F0EA
:103D400002036365BAE7126812F0020F3DD1E36D1A
:103D500003F01F03102202FA03F333425FD02268FC
:103D6000714872498A4218BF824234D018318A425F
:103D700031D018318A422ED018318A422BD01831D6
:103D80008A4228D018318A4225D018318A4222D05E
:103D900001F556718A421ED018318A421BD0183163
:103DA0008A4218D018318A4215D018318A4212D06E
:103DB00018318A420FD018318A420CD018318A4209
:103DC00009D01268C2F3800208E0BB60636D43F063
:103DD00004036365BBE71268C2F3C002FAB1BB60BB
:103DE00023681A6812F4802F0DD01B6813F4002F7B
:103DF00004D1236C9BB12046984710E0A36C73B1AB
:103E0000204698470BE01A6812F4807F03D11A68A5
:103E100022F008021A60236C0BB120469847E36D2C
:103E200003F01F03202202FA03F3334200F09280D2
:103E300022683D483D498A4218BF82422ED018313F
:103E40008A422BD018318A4228D018318A4225D094
:103E500018318A4222D018318A421FD018318A4242
:103E60001CD001F556718A4218D018318A4215D0FB
:103E700018318A4212D018318A420FD018318A4242
:103E80000CD018318A4209D018318A4206D0183134
:103E90008A4203D01268C2F3400202E01268C2F301
:103EA0000012002A56D0BB6094F83530DBB2042BE8
:103EB0000ED023681A6812F4802F39D01B6813F4CF
:103EC000002F2CD1636C002B44D02046984741E052
:103ED0002268136823F0160313602268536923F0E5
:103EE00080035361236CB3B12268136823F0080385
:103EF0001360E36D03F01F023F239340BB60012377
:103F000084F83530002384F83430236D002B7FD0C3
:103F1000204698477CE0A36C002BE5D1E9E7E36BF2
:103F2000C3B12046984715E0100002402800024027
:103F30001A6812F4807F09D11A6822F010021A6000
:103F4000012384F83530002384F83430E36B0BB15F
:103F500020469847636D002B5AD0636D13F0010F14
:103F600052D0042384F8353023689649964A934208
:103F700018BF8B422FD0183293422CD01832934264
:103F800029D01832934226D01832934223D01832C7
:103F9000934220D0183293421DD002F556729342BC
:103FA00019D01832934216D01832934213D01832D7
:103FB000934210D0183293420DD0183293420AD057
:103FC0001832934207D01832934204D01A6822F074
:103FD00001021A6003E01A6822F001021A60019BD4
:103FE00001330193AB4204D823681B6813F0010F1F
:103FF000F5D123681B6813F0010F0BD0032384F85D
:104000003530002384F83430E36C0BB120469847F8
:1040100003B0F0BD012384F83530F2E7236C002BA8
:10402000F6D020469847F3E712F0200F3AD12368E4
:104030006449654A934218BF8B422FD0183293428D
:104040002CD01832934229D01832934226D01832FD
:10405000934223D01832934220D0183293421DD07D
:1040600002F55672934219D01832934216D0183284
:10407000934213D01832934210D0183293420DD08D
:10408000183293420AD01832934207D01832934222
:1040900004D01A6822F004021A6003E01A6822F0C1
:1040A00008021A60236C002BB2D020469847AFE775
:1040B0000220884010EA0C0F60D012F0020F5DD091
:1040C000786012F4004F0ED012F4803F05D1636C7B
:1040D000002B9DD0204698479AE7E36B002B97D0A2
:1040E0002046984794E712F0200F40D123683549C5
:1040F000354A934218BF8B422FD0183293422CD0AE
:104100001832934229D01832934226D01832934263
:1041100023D01832934220D0183293421DD002F59A
:104120005672934219D01832934216D018329342E5
:1041300013D01832934210D0183293420DD0183257
:1041400093420AD01832934207D01832934204D0D7
:104150001A6822F00A021A6003E01A6822F01402B8
:104160001A60012384F83530002384F83430E36B7F
:10417000002B3FF44DAF2046984749E7082000FA4E
:1041800001F111EA0C0F3FF443AF12F0080F3FF4B6
:104190003FAF1A6822F00E021A60E36D03F01F03AE
:1041A000012202FA03F37B60626584F83520002364
:1041B00084F83430E36C002B3FF42AAF2046984754
:1041C00026E700BF1000024028000240134BDB68C6
:1041D00013F0040F07D1114BDB6803F00703834290
:1041E0001AD00120704710B50C4AD36823F007039A
:1041F0001843D06000F04EF80446084B5B6813F497
:10420000005F07D100F046F8001BB0F57A7FF4D9C3
:10421000012000E0002010BD002070470048025837
:1042200010B50320FCF7E4FEFDF778FA0F498B691F
:10423000C3F303230E4AD35C03F01F03D8408B69FA
:1042400003F00F03D35C03F01F0320FA03F3094AC2
:104250001360094B18600F20FCF77CFE10B101249D
:10426000204610BD0446FCF75BFEF9E70044025807
:10427000A47600080C00002408000024034B1B78DF
:10428000034A11680B441360704700BF000000240C
:1042900054150024014B1868704700BF54150024C2
:1042A00030B4446B0368D3F884106F4A114041EA7C
:1042B0008401C3F884100368D3F8841021F47F01CB
:1042C000856B41EA0541C3F88410836B234404687D
:1042D000D4F88810114041EA8301C4F888100468BA
:1042E000D4F8881021F4FE01C56B41EA0541C4F8F9
:1042F0008810C16B03EB41030468D4F8A01011408F
:1043000041EA8301C4F8A0100468D4F8A01021F495
:10431000FE01056C41EA0541C4F8A010016C446C33
:1043200004FB01330468D4F8B010114041EA830162
:10433000C4F8B0100468D4F8B01021F4FE01856C04
:1043400041EA0541C4F8B010816CC46C04FB013330
:104350000468D4F8AC10114041EA8301C4F8AC10F1
:10436000016D446D04FB01330468D4F8F010114072
:1043700041EA8301C4F8F0100468D4F8F01021F485
:104380007C11856D41EA0541C4F8F010816D03EBA5
:1043900041030468D4F8C0100A4042EA8303C4F819
:1043A000C0300268D2F8C03023F47C13C16D43EAF8
:1043B0000143C2F8C0300268D2F8C03023F07C5309
:1043C000016E43EA0163C2F8C030436B274A1A44C6
:1043D0009200C266836B02EB83030367C16B03EB3E
:1043E000C1034367016C446C04FB01F103EB8103DF
:1043F0008367816CC46C04FB01F103EB8103C36729
:10440000016D446D04FB01F103EB8103C0F88030C2
:10441000816D03EBC103C0F88430816EC46D01FB74
:1044200004FC03EB8C03C0F88830046E04FB01F13C
:1044300003EB8103C0F890300D498B420DD9D0F8C1
:104440009C3043F02003C0F89C30032380F8983060
:10445000012007E0002342F8043BD0F8903093425B
:10446000F8D8002030BC70470300FFFF002B00107D
:10447000FCD3004030B595B004464C22A04901A8B9
:1044800003F094F8002C00F0388123689D4A934291
:1044900020D094F898300BB32268936923F010036E
:1044A0009361FFF7F7FE054623689A6912F0080F3B
:1044B0001AD0FFF7EFFE431B0A2BF5D9D4F89C3036
:1044C00043F00103C4F89C30032384F898300120A2
:1044D00015B030BD03F580736360DAE784F8993076
:1044E0002046FCF711FAD7E79A6942F001029A6177
:1044F000FFF7D0FE054623689A6912F0010F0FD12D
:10450000FFF7C8FE401B0A28F5D9D4F89C3043F0C9
:104510000103C4F89C30032384F898300120D7E7C6
:104520009A6942F002029A61237C012B40D02268F2
:10453000936943F040039361637C012B3ED0226872
:10454000936923F480439361A37C012B3CD02268C0
:10455000936943F4805393612268936923F4407311
:10456000A1680B4393612268936923F0A4039361CC
:104570002268136923F010031361E368012B29D02B
:10458000002B2CD0022B00F09B802268936943F013
:10459000800393612268136943F010031361E36899
:1045A000032B1CD12268936943F02003936116E02A
:1045B0002268936923F040039361BDE72268936901
:1045C00043F480439361BFE72268936923F48053E7
:1045D0009361C1E72268936943F004039361A3697F
:1045E0005A1EE369013B1B0243EA4263226A013A15
:1045F00013436269013A216843EA0243CB61A3682D
:10460000B3F5407F62D0236E33B12268D2F8C03058
:10461000616E0B43C2F8C030E36D226ED3420DD001
:104620002168D1F8C83023F00703A26E14A800EB6C
:10463000820252F84C2C1343C1F8C830236C6BB182
:104640002168D1F8BC3023F00703626C14A800EB9A
:10465000820252F84C2C1343C1F8BC30A36C73B1E6
:104660002168D1F8BC3023F07003E26C14A800EB91
:10467000820252F84C2C43EA0213C1F8BC30236D7D
:1046800073B12168D1F8BC3023F4E063626D14A8E3
:1046900000EB820252F84C2C43EA0223C1F8BC30F2
:1046A0002268184B9A4222D00023C4F89430C4F8F0
:1046B0009C30012384F898302046FFF7F1FD07E78E
:1046C0002268936943F02003936188E7A36A013B62
:1046D000E26A013A43EA0223226B013A43EA0213F7
:1046E000626A013A216843EA0243CB608BE7626861
:1046F000936823F003039360D6E70120E8E600BF48
:104700000C76000800A0004090F898C05FFA8CFC7E
:10471000BCF1020F40F0E28070B540290CD0412975
:104720003DD0046D8C426DD8D0F89C3043F020030E
:10473000C0F89C300120C3E00468D4F8A05015F400
:10474000FE0F0CD0D4F8A45015F07F0F0FD1D0F885
:104750009C3043F48073C0F89C300120B0E0D0F866
:104760009C3043F02003C0F89C300120A8E0D4F82E
:10477000A450C5F3006615F0807F04D0D4F8A06083
:10478000F60F00D10026D4F8A440C4F30524264433
:10479000456F446C06FB04F405EB840C39E00468B7
:1047A000D4F8B05015F4FE0F0CD0D4F8B45015F076
:1047B0007F0F0FD1D0F89C3043F48073C0F89C3049
:1047C00001207DE0D0F89C3043F02003C0F89C30FD
:1047D000012075E0D4F8B450C5F3006615F0807F71
:1047E00004D0D4F8B060F60F00D10026D4F8B4405D
:1047F000C4F305242644856FC46C06FB04F405EB62
:10480000840C06E0C56F446D01FB04F405EB840CD9
:104810000026DCF8004004F08044546074BBDCF8EF
:104820000040C4F38A441460DCF8004004F00054F3
:104830009460DCF8004004F000441461BCF80440CB
:10484000D461BCF8064004F00F04D460DCF80440E6
:1048500004F480145461DCF8044004F400149461FE
:104860009CF8074004F07F041462DCF80440E40F75
:1048700054620CF1080E4FF0000C0BE0DCF8004025
:1048800024F060441460CFE71EF80C4003F80C409D
:104890000CF1010CD468154D2C5D6445F4D8402909
:1048A0000AD041290DD01F290FD80268012303FA2D
:1048B00001F1C2F8981002E00368C3F8A860002074
:1048C00070BD0368C3F8B860F9E701F01F01026822
:1048D000012303FA01F1C2F89C10F0E7D0F89C30F4
:1048E00043F00803C0F89C30012070476C76000844
:1048F000402905D00368D3F8B40000F07F0070476A
:104900000368D3F8A40000F07F0070477047704739
:1049100070477047704770477047704770477047DF
:104920007047704770477047704700002DE9F04F9F
:1049300083B00446B04B1A695B699B0703EA827334
:10494000019303681A6D02F4704A5A6D0AEA020A6A
:104950001A6D02F00F095A6D09EA02091A6D02F088
:10496000F0085A6D08EA02081E6D06F071565A6D7D
:1049700016401F6D07F060775A6D17405D6DD3F8D4
:1049800050B015F4807F02D01BF4807F64D115F401
:10499000806F02D01BF4806F67D1019B002B74D114
:1049A000BAF1000F7CD1B9F1000F40F08580B8F169
:1049B000000F40F08D8015F4006F03D01BF4006FE2
:1049C00040F0928015F4007F03D01BF4007F40F08C
:1049D000968015F4002F03D01BF4002F40F09F8029
:1049E00015F4803F03D01BF4803F40F0A38015F402
:1049F000802F03D01BF4802F40F0A78015F4003FD8
:104A00000FD01BF4003F0CD023684FF400321A651E
:104A1000794B00221A61D4F89C3043F08003C4F82B
:104A20009C30002F40F09C804EB123681E65B20F71
:104A3000714B1A61D4F89C301E43C4F89C60226804
:104A40006E4B9A4200F09680D4F89C30002B40F0D8
:104A5000F78003B0BDE8F08F4FF480721A65664BA3
:104A600000221A61FFF75AFF91E72368D3F8DC10A0
:104A7000D3F8E4204FF4806018655F4B0020186184
:104A800011402046FFF746FF87E7236800221A659A
:104A900001998A0F584B1A612046FFF737FF7FE7CD
:104AA0002368C3F850A04FEA9A72534B1A615146DB
:104AB0002046FFF72CFF76E72368C3F850904FEAB3
:104AC00099724D4B1A614946204602F0F9FC6EE797
:104AD0002368C3F850804FEA9872474B1A614146E9
:104AE000204602F0F2FC66E723684FF400621A6584
:104AF000414B00221A612046FFF70AFF62E7236854
:104B0000D3F8D810D3F8E0204FF4007018653A4B72
:104B10000020186111402046FFF7FBFE59E723688B
:104B20004FF400221A65344B00221A612046FFF729
:104B3000F2FE55E723684FF480321A652E4B0022AF
:104B40001A612046FFF7E8FE51E723684FF4802200
:104B50001A65294B00221A612046FFF7DEFE4DE759
:104B600023681F65BA0F244B1A6139462046FFF7A8
:104B7000D7FE59E763689A6812F0030F3FF464AFF9
:104B8000196A01F00F015A6A186A00F03008586A71
:104B900008EA00081F6A07F4C077586A07401E6ACF
:104BA00006F4FC46586A06401D6A05F4F025586A6A
:104BB0000540D3F82490D3F820A0114020D1B8F1BB
:104BC000000F22D119F0400F02D01AF0400F24D16B
:104BD0007FBB36B163681E62D4F89C301E43C4F8B4
:104BE0009C60002D3FF430AF63681D62D4F89C30A8
:104BF0001D43C4F89C5027E700A8004000A00040D7
:104C000019622046FFF78DFED9E76368C3F820805C
:104C100041462046FFF786FED4E76368D96BDA6B1E
:104C20004020186202F03F02090C2046FFF77BFE8D
:104C3000CEE763681F6239462046FFF775FEC8E776
:104C40002046FFF76CFE04E710B4026853699169CF
:104C500041F00801916101688A6942F010028A619D
:104C600001680A6822F001020A6001680C69294A99
:104C700022400A6101688A6822F440428A6090F802
:104C80008120D2B2042A0DD013F0200F0AD0D0F820
:104C9000842042F08002C0F8842001688A6942F0D2
:104CA00020028A6190F88120D2B2032A0DD013F03D
:104CB000400F0AD0D0F8842042F00402C0F88420CB
:104CC00001688A6942F040028A6113F4007F0AD0C9
:104CD000D0F8842042F00102C0F8842001688A697B
:104CE00042F400728A6113F4807F0AD0D0F88430D5
:104CF00043F00803C0F884300268936943F480737A
:104D000093610023A0F86230A0F86A305DF8044B8C
:104D1000704700BF90FCFFFFC36B5B09C0680830A1
:104D2000C00803FB00007047002800F0B78070B592
:104D300004460023836205685C4B5D4E9D4218BFAC
:104D4000B54214BF0126002607D0A3F574439D4247
:104D500003D0C3680F2B00F2A3802046FFF7DCFFCF
:104D60002EB1544B9D4202D0082800F29B804F4A3E
:104D70004F4B9D4218BF954203D003F580639D427F
:104D800002D1102800F2908094F88130F3B1022310
:104D900084F881302268136823F0010313602168CE
:104DA0008A6802F4F812A369B3F1806F14D06368C3
:104DB00013F4800F23D0E368062B20D921680B68F9
:104DC00023F48073206D03430B601DE084F8803072
:104DD0002046FBF7D5FEDAE76368B3F5800F06D00F
:104DE000002BE4D1A36BB3F1805FE0D102E0A06BB4
:104DF0000028F5D10B6843F480530B60D7E7216896
:104E00000B6823F480730B60E369A16A0B431343BF
:104E1000E26B1343E16822680B439360636B626A41
:104E20001343A26B1343A2691343226913436269BC
:104E30001343226A134362681343E26C1343A2686C
:104E40001343A26C1343A16D22680B43D3606368C4
:104E50006BB92268936823F4C05343F400639360F2
:104E60002268936823F4C06343F4806393602268EC
:104E7000136D23F001031365636813F4800F06D0EC
:104E80002268D36823F00043616D0B43D360002098
:104E9000C4F88400012384F8813070BD012070477C
:104EA0000120FAE70120F8E70120F6E70030014091
:104EB00000380040003C0040704770477047704722
:104EC00008B5806B0023A0F86A30A0F86230012397
:104ED00080F88130FFF7F3FF08BD70472DE9F843F4
:104EE000044606683269736902EA0305D6F8089039
:104EF00090F88170FFB213F4006F02D012F0080F27
:104F00003FD105F06403042B42D0002305F045088F
:104F1000B8F1010F44D005F02602022A45D0002B3B
:104F200046D115F0080F79D02268936943F0080341
:104F300093612268936943F0100393612268936937
:104F400043F4006393612268136923F0080313613B
:104F500023689B6813F4404F3BD02046FFF774FE54
:104F6000012384F88130D4F88430002B4AD1052FF6
:104F70004CD0042F4ED0032F1AD12046FFF79CFFB0
:104F800016E0B36943F40063B361FFF7A6FF0FE0D7
:104F9000636F20469847236F204698470123B5E763
:104FA000236F204698474346B5E7636F20469847EE
:104FB000BDE8F883072B1CD9636E328E1A80636EAE
:104FC00002336366B4F86A309BB2013B9BB2A4F82B
:104FD0006A30B4F86A309BB2002BBED0E3680F2B66
:104FE000E8D92268636E126B1A60636E04336366DD
:104FF000E8E72268636E92F830201A70636E01331E
:105000006366DFE72046FFF75AFFD1E72046FFF748
:1050100055FFCDE72046FFF750FFC9E715F4587F4D
:10502000C6D015F0400F0AD0D4F8843043F0040302
:10503000C4F884302268936943F04003936115F407
:10504000007F0AD0D4F8843043F00103C4F88430E0
:105050002268936943F40073936115F4807F0AD04A
:10506000D4F8843043F00803C4F88430226893698C
:1050700043F48073936115F0200F0AD0D4F8843084
:1050800043F08003C4F884302268936943F020031E
:105090009361D4F88430002B8AD02268136823F0FF
:1050A00001031360226811691A4B0B40136109F464
:1050B0004049B9F5404F25D12268936823F4404315
:1050C0009360E36F5BB1144A1A65E06FFEF7AAFBC9
:1050D00028B1D4F8843043F04003C4F88430A36F7F
:1050E000002B3FF465AF0C4A1A65A06FFEF79AFBE0
:1050F00000283FF45DAFD4F8843043F04003C4F897
:10510000843055E7012384F881302046FFF7D7FE2D
:105110004EE700BF94FCFFFFC14E0008704700003F
:1051200090F83D30DBB2012B42D1022380F83D30B4
:105130000268D36843F00103D36003681E4AB3F1E9
:10514000804F18BF934225D0A2F57C42934221D0D4
:1051500002F5806293421DD002F58062934219D01D
:1051600002F57842934215D0A2F56C42934211D0D9
:1051700002F5943293420DD0A2F5C042934209D079
:1051800002F58062934205D01A6842F001021A606B
:10519000002070479968094A0A40062A18BFB2F5EC
:1051A000803F07D01A6842F001021A600020704761
:1051B00001207047002070470000014007000100F7
:1051C000704770477047704770B504460368DE68E3
:1051D0001D6915F0020F10D016F0020F0DD06FF000
:1051E00002021A610123037703689B6913F0030F1E
:1051F00064D0FFF7E6FF0023237715F0040F12D0E9
:1052000016F0040F0FD023686FF004021A61022316
:10521000237723689B6913F4407F55D02046FFF71E
:10522000D0FF0023237715F0080F12D016F0080FD7
:105230000FD023686FF008021A61042323772368D4
:10524000DB6913F0030F46D02046FFF7BAFF0023B7
:10525000237715F0100F12D016F0100F0FD023681F
:105260006FF010021A61082323772368DB6913F4B7
:10527000407F37D02046FFF7A4FF0023237715F0A7
:10528000010F02D016F0010F33D115F4025F02D0E6
:1052900016F0800F35D115F4807F02D016F0800F04
:1052A00037D115F0400F02D016F0400F39D115F06C
:1052B000200F02D016F0200F3BD170BDFFF780FF0A
:1052C0002046FFF77FFF96E72046FFF779FF20464D
:1052D000FFF778FFA5E72046FFF772FF2046FFF7AC
:1052E00071FFB4E72046FFF76BFF2046FFF76AFF28
:1052F000C3E723686FF001021A61204601F0DBFF6B
:10530000C3E723686FF402521A61204600F0E3F805
:10531000C1E723686FF480721A61204600F0DCF860
:10532000BFE723686FF040021A612046FFF74BFF8A
:10533000BDE723686FF020021A61204600F0CAF82A
:10534000BBE7000030B50368424A904214BF4FF0FB
:10535000000E4FF0010EB0F1804F14BF72464EF0B8
:105360000102AAB93C4CA04214BF002401243B4DC9
:10537000A8420DD064B904F1804404F58234A042FF
:1053800014BF0024012405F50065A84200D01CB11B
:1053900023F070034C68234362BB2F4A904214BF32
:1053A000002201222D4CA04224D01ABB02F18042DF
:1053B00002F58232904214BF0022012204F50064FB
:1053C000A04217D0B2B9264A904214BF002201224F
:1053D00004F59A34A0420DD062B9224A904214BF1B
:1053E0000022012204F50064A04203D012B91E4A33
:1053F000904204D123F4407CCB6843EA0C0323F0B1
:1054000080034A69134303608A68C2620A68826241
:10541000164A904214BF73464EF0010363B9104B15
:10542000984214BF0023012302F57052904203D02A
:1054300013B90F4B984201D10B69036301234361F8
:10544000036913F0010F03D0036923F00103036123
:1054500030BD00BF000001400008004000040040D3
:105460000044014000E0004000E40040000401402E
:105470000048014060B310B5044690F83D3013B3C6
:10548000022384F83D30214651F8040BFFF75AFF00
:10549000012384F8483084F83E3084F83F3084F8A3
:1054A000403084F8413084F8423084F8433084F846
:1054B000443084F8453084F8463084F8473084F826
:1054C0003D30002010BD80F83C30FFF727FED7E7C5
:1054D000012070477047704770470000026852E82B
:1054E000003F23F4907342E800310029F6D10268AE
:1054F00002F1080353E8001F0D4B0B40083242E84D
:1055000000310029F3D1C36E012B06D02023C0F84F
:105510008C300023C36643677047026852E8003F3F
:1055200023F0100342E800310029F6D1EEE700BF76
:10553000FEFFFFEF704708B5026852E8003F23F016
:10554000400342E800310029F6D12023C0F888301A
:1055500000238367FFF7EEFF08BD704708B5806B37
:105560000023A0F85E30A0F85630FFF7F6FF08BD24
:105570007047000070B504460168CB6908688D6803
:1055800040F60F021A4008D113F0200F05D010F09A
:10559000200F34D115F0805F31D12AB18B4A2A40D7
:1055A00033D18B4E304230D1E26E012A00F0C680FA
:1055B00013F4801F03D015F4800F40F09B8113F08B
:1055C000800F07D010F0800F40F09B8115F4000F82
:1055D00040F0978113F0400F03D010F0400F40F0DF
:1055E000978113F4000F03D010F0804F40F09481A6
:1055F00013F0807F02D00028C0F2928170BD636FEB
:10560000002BFBD020469847F8E713F0010F09D094
:1056100010F4807F06D001260E62D4F8901031433A
:10562000C4F8901013F0020F0BD015F0010F08D042
:10563000216802260E62D4F8901041F00401C4F8EB
:10564000901013F0040F0BD015F0010F08D0216853
:1056500004260E62D4F8901041F00201C4F89010B4
:1056600013F0080F0BD010F0200F00D13AB12268D0
:1056700008211162D4F890200A43C4F8902013F452
:10568000006F0CD010F0806F09D022684FF40061D9
:105690001162D4F8902042F02002C4F89020D4F88F
:1056A0009020002AAAD013F0200F09D010F0200F6C
:1056B00002D115F0805F03D0636F0BB1204698478D
:1056C000D4F8902023689B6813F0400F02D112F0A9
:1056D000280F2CD02046FFF701FF23689B6813F0AA
:1056E000400F20D0226802F1080353E8003F23F066
:1056F0004003083242E800310029F3D1D4F8803069
:105700006BB1344A1A65D4F88000FEF78BF8002894
:105710003FF474AFD4F88000036D98476EE72046DD
:10572000FFF71BFF6AE72046FFF717FF66E72046F3
:10573000FFF713FF0023C4F890305FE713F0100F5A
:105740003FF436AF10F0100F3FF432AF10230B626E
:1057500023689B6813F0400F00F09280D4F88020FB
:1057600013681D481D498B4218BF834238D0183139
:105770008B4235D018318B4232D018318B422FD02A
:1057800018318B422CD018318B4229D018318B42E2
:1057900026D001F556718B4222D018318B421FD092
:1057A00018318B421CD018318B4219D018318B42E2
:1057B00016D018318B4213D018318B4210D01831CB
:1057C0008B420DD05B689BB20CE000BF0100001063
:1057D000200100045D55000810000240280002402E
:1057E0005B689BB2002B3FF409AFB4F85C109942A0
:1057F0007FF604AFA4F85E30D369B3F5807F32D072
:10580000226852E8003F23F4807342E80031002907
:10581000F6D1226802F1080353E8003F23F00103A8
:10582000083242E800310029F3D1226802F108036E
:1058300053E8003F23F04003083242E800310029DA
:10584000F3D12023C4F88C300023E366226852E8A9
:10585000003F23F0100342E800310029F6D1D4F8CC
:105860008000FDF73FFE02232367B4F85C10B4F814
:105870005E309BB2C91A89B22046FFF779FEBDE6B9
:10588000B4F85C10B4F85E309BB2C91A89B2B4F8AF
:105890005E309BB2002B3FF4B1AE00293FF4AEAEB8
:1058A000226852E8003F23F4907342E80030002859
:1058B000F6D1226802F1080353E8000F1A4B0340A7
:1058C000083242E800300028F3D12023C4F88C309D
:1058D0000023E3666367226852E8003F23F0100369
:1058E00042E800300028F6D1022323672046FFF764
:1058F0003FFE83E64FF480130B62204600F0ECFC81
:105900007CE6A36F002B3FF479AE2046984775E6FE
:105910002046FFF710FE71E6204600F0DFFC6DE642
:10592000204600F0DAFC69E6FEFFFFEF70B586B0B6
:105930000446016883680269134342691343C269DC
:1059400013430868904A024013430B60226853686F
:1059500023F44053E1680B435360A16922688B4BE9
:105960009A4201D0236A19439068894B03400B4344
:1059700093602268D36A23F00F03616A0B43D362FA
:105980002268844B9A4229D0834B9A4200F094803B
:10599000824B9A4200F0AA80814B9A4200F0C0806C
:1059A000804B9A4200F0D6807F4B9A4200F00881EB
:1059B0007E4B9A4200F02D817D4B9A4200F040814F
:1059C0007C4B9A4200F053817B4B9A4200F07881E5
:1059D0006E4B9A4200F09D81802333E0774B5B6DE4
:1059E00003F03803282B65D8DFE813F029006400A2
:1059F000640064006400640064006400AB0164003F
:105A00006400640064006400640064002B006400AF
:105A10006400640064006400640064005E0064006C
:105A2000640064006400640064006400600064005A
:105A30006400640064006400640064006200012388
:105A400000E0082351498A4200F09481E069B0F5F2
:105A5000004F00F00A82202B00F26282202B00F21D
:105A6000AC82DFE813F079027F02AA02AA02820266
:105A7000AA02AA02AA028702AA02AA02AA02AA02E9
:105A8000AA02AA02AA028C02AA02AA02AA02AA02D4
:105A9000AA02AA02AA02AA02AA02AA02AA02AA02A6
:105AA000AA02AA02AA0298021023CBE72023C9E780
:105AB0004023C7E78023C5E7404B5B6D03F0070336
:105AC000052B11D8DFE813F006003F0108000A009B
:105AD0000C000E000023B5E70823B3E71023B1E75D
